:020000040000fa
:080000000002040000000000f2
:020000040000fa
:10040000ef8420000e9f20000e01880000000000f5
:100410000c000700208320000100200011000700cd
:10042000000020000000e000020032000000020096
:100430000000000000040200000000000040da009c
:100440000000fe004440a900000020000000e00081
:100450000300320000002000a00188004440a800f2
:100460000000060091018800800078000000eb0089
:1004700015003700e280400032a0b4009101ba00bc
:10048000e280400032a0b4009102ba00e280400055
:1004900032a0b4000002eb00472bde00f507b200eb
:1004a000602ce10004003a000059eb008301e900f0
:1004b000fdff3e00040037006128e100010032002a
:1004c0000082eb00040007001101ba000200e00006
:1004d000e8ff3a00000006003159ba008301e90044
:1004e0000c0032002159ba008301e90008003200f3
:1004f0000400e00003003a00e280400032a0b400b3
:10050000f5ff370011d9ba008301e900faff3a007c
:100510008100e800e180400032a0b4000000060045
:100520000000fa008020a900ffff37000000fa0059
:100530008060a900ffff37000000fa008040a9009a
:10054000ffff37000000fa008080a900ffff37009e
:100550000000fa008020a900ffff37000000fa0029
:100560008060a900ffff37000000fa008040a9006a
:10057000ffff37000000fa008080a900ffff37006e
:080580000000fa00ffff370044
:020000040000fa
:10000800c002000090020000960200009c0200005e
:10001800a2020000c0020000c0020000c0020000ee
:10002800c0020000c0020000c00200000603000079
:10003800c0020000c0020000c0020000c0020000b0
:10004800c0020000c0020000c0020000c0020000a0
:10005800c0020000c0020000c0020000c002000090
:10006800c0020000c0020000c0020000c002000080
:10007800c0020000c0020000c0020000c002000070
:10008800c0020000c0020000c0020000c002000060
:10009800c0020000c0020000c0020000c002000050
:1000a800c0020000c0020000c0020000c002000040
:1000b800c0020000c0020000c0020000c002000030
:1000c800c0020000c0020000c0020000c002000020
:1000d800c0020000c0020000c0020000c002000010
:1000e800c0020000c0020000c0020000c002000000
:1000f800c0020000c0020000c0020000c0020000f0
:10010800c0020000c0020000c0020000c0020000df
:10011800c0020000c0020000c0020000c0020000cf
:10012800c0020000c0020000c0020000c0020000bf
:10013800c0020000c0020000c0020000c0020000af
:10014800c0020000c0020000c0020000c00200009f
:10015800c0020000c0020000c0020000c00200008f
:10016800c0020000c0020000c0020000c00200007f
:10017800c0020000c0020000c0020000c00200006f
:10018800c0020000c0020000c0020000c00200005f
:10019800c0020000c0020000c0020000c00200004f
:1001a800c0020000c0020000c0020000c00200003f
:1001b800c0020000c0020000c0020000c00200002f
:1001c800c0020000c0020000c0020000c00200001f
:1001d800c0020000c0020000c0020000c00200000f
:1001e800c0020000c0020000c0020000c0020000ff
:0801f800c0020000c00200007b
:020000040000fa
:10020800c0020000a8020000ae020000b402000014
:10021800ba020000c0020000c0020000c0020000d4
:10022800c0020000c0020000c00200000603000077
:10023800c0020000c0020000c0020000c0020000ae
:10024800c0020000c0020000c0020000c00200009e
:10025800c0020000c0020000c0020000c00200008e
:10026800c0020000c0020000c0020000c00200007e
:10027800c0020000c0020000c0020000c00200006e
:10028800c0020000c0020000c0020000c00200005e
:10029800c0020000c0020000c0020000c00200004e
:1002a800c0020000c0020000c0020000c00200003e
:1002b800c0020000c0020000c0020000c00200002e
:1002c800c0020000c0020000c0020000c00200001e
:1002d800c0020000c0020000c0020000c00200000e
:1002e800c0020000c0020000c0020000c0020000fe
:1002f800c0020000c0020000c0020000c0020000ee
:10030800c0020000c0020000c0020000c0020000dd
:10031800c0020000c0020000c0020000c0020000cd
:10032800c0020000c0020000c0020000c0020000bd
:10033800c0020000c0020000c0020000c0020000ad
:10034800c0020000c0020000c0020000c00200009d
:10035800c0020000c0020000c0020000c00200008d
:10036800c0020000c0020000c0020000c00200007d
:10037800c0020000c0020000c0020000c00200006d
:10038800c0020000c0020000c0020000c00200005d
:10039800c0020000c0020000c0020000c00200004d
:1003a800c0020000c0020000c0020000c00200003d
:1003b800c0020000c0020000c0020000c00200002d
:1003c800c0020000c0020000c0020000c00200001d
:1003d800c0020000c0020000c0020000c00200000d
:1003e800c0020000c0020000c0020000c0020000fd
:0803f800c0020000c002000079
:020000040000fa
:100588000000fa00c00020000016880000000000eb
:10059800700020004016880000000000f0002000d5
:1005a80060198800cc82a800c482a800cde2a80007
:1005b800b05120001012880040c2a90041e2a800f2
:1005c80050002000000c880050002000100c88000b
:1005d800210c800080ff2f00008060006000b300c5
:1005e800200c8800900020006008880011e1a80015
:1005f80000002a001008880005e1a8000080fa0021
:1006080000000600809fbe003400f80000002000b3
:10061800a00188000000fa008460a900cd22a8008b
:1006280001802000914078000040eb0080cf50000e
:1006380006003200cd02a80000000000cd02a9008b
:10064800000000000040eb0000e8b700cd22a90040
:1006580011802000914078000040eb0080cf5000ce
:100668006100320004c8bf000080fb0021002000a8
:10067800810f50001e00320031002000810f500011
:100688003300320011002000810f50004a003a0068
:10069800cde2a80000000000cc82a9000040eb00d9
:1006a80003e8b7000a00370003c8bf000080fb005a
:1006b800800040006080200000804000100078002a
:1006c8004012880003c8bf000040e80003e8b700f4
:1006d8003180200091407800b0c0b30080cf500036
:1006e800f1ff360020c0b30004e8b7003a00370035
:1006f800cc82a80000000000c482a900c0c0b300da
:1007080003e8b7000a00370003c8bf000080fb00f9
:1007180080004000608020000080400010007800c9
:100728004012880003c8bf000040e80003e8b70093
:10073800318020009140780070c1b30080cf500014
:10074800f1ff360030c0b30004e8b70022003700dc
:10075800c482a80000000000cde2a90080c1b30057
:1007680003e8b7000a00370003c8bf000080fb0099
:100778008000400060802000008040001000780069
:100788004012880003c8bf000040e80003e8b70033
:10079800318020009140780030c2b30080cf5000f3
:1007a800f1ff360010c0b30002e8b70010c0b30074
:1007b80004e8b70008003700c482a8000000000061
:1007c800cde2a80000000000cc82a80010c0b30051
:1007d80004e8b700000000000040eb0001e8b700a3
:1007e80010c0b30000e8b7000080fa003400f90038
:1007f8004f00be00004006000000fa0060ff07003e
:10080800cde2a900cc82a900cde2a800cc82a80044
:10081800fbff37000800fa0040479800514798004e
:1008280062479800734798004e4090000080fb0094
:100838004200de00004f78001e4078006300b900d7
:1008480000007800004f78004e4090001e40500095
:10085800404798000040eb0020479800de00370032
:10086800ae4090000040eb0080cf500003003a00fb
:100878005e4090001047980011003700ae4090008d
:1008880010c0b30080cf500005003a00ee40900041
:10089800114798001e4178006c4f4100080037004e
:1008a800ae40900020c0b30080cf500004003a0052
:1008b8007e409000104798009e4078006ccf400022
:1008c800ce4090000040eb0080cf50001e003a0060
:1008d8001e4178000280fb001e4178008280fb00e8
:1008e8000181400061802000810041009100780072
:1008f800ef8060000001400060802000000041009f
:10090800010878001e4078008080fb001e417800b6
:100918000280fb00000140006080200000004100d0
:10092800100178001e4090000080fb004800dd00a8
:10093800000171008180400060802000008040003c
:1009480002087800a1003700ce40900010c0b30024
:1009580080cf500041003a009e4078000180fb00a3
:100968001e4178008280fb000181400061802000e8
:10097800810041001101780001ff2f008100610012
:10098800000140006080200000004100010878005c
:100998001e4078008080fb001e4178000280fb002a
:1009a8000001400060802000000041001001780034
:1009b8001e4090000080fb004400de0000407800ec
:1009c8000080fb00000171008180400060802000f1
:1009d80000804000020878009e4078000180fb00fb
:1009e8000000e8001e4178008280fb008100e800da
:1009f80001814000618020008100410011017800e0
:100a0800f10f20008100610000014000608020009b
:100a180000004100010878001e4078008080fb003b
:100a28001e4178000280fb00000140006080200029
:100a380000004100100178001e4090000080fb007b
:100a48004c00dd00000171008180400060802000c2
:100a580000804000020878005c003700ce4090001b
:100a680020c0b30080cf500032003a009e4078008a
:100a78000180fb000000e8001e4178008280fb0036
:100a88008100e80001814000618020008100410070
:100a98001101780001f02f00810061000001400081
:100aa8006080200000004100010878009e40780026
:100ab8000180fb008000e8001e4178000280fb00f6
:100ac8000000e800000140006080200000004100b4
:100ad800100178001e4090000080fb0000017100aa
:100ae800818040006080200000804000020878007b
:100af8009e4078000180fb000080e8001e417800dd
:100b08008280fb008180e800018140006180200034
:100b18008100410011017800f1ff2000810061008f
:100b280000014000608020000000410001087800ba
:100b380026003700ce40900030c0b30080cf500070
:100b480022003a009e4078000180fb000080e80007
:100b58001e4178008280fb008180e800018140000e
:100b680061802000810041001101780001002f0000
:100b78008100610000014000608020000000410009
:100b8800010878009e4078000180fb008080e80022
:100b98001e4178000280fb000080e8000001400050
:100ba8006080200000004100100178001e40900085
:100bb8000080fb004400dd000001710081804000de
:100bc8006080200000804000020878002e409000dd
:100bd8000040e80020479800ae40900020c0b300d5
:100be80080cf50001eff36000080fa00000006008b
:100bf8000e00fa00004f980051079800424f9800e5
:100c0800534f98000000eb00100798000000eb001d
:100c1800200798000000eb0030079800de4890009d
:100c280000c8b30080cf5000090036005e4890002d
:100c38000080fb000008b100000040008000780040
:100c4800f00f200000806800000f78000b003700cc
:100c5800de4890000040eb0080cf500003003d00cc
:100c6800f00f2000000f7800040037005e48900065
:100c78000080fb0000004000000f7800f00f20000b
:100c88009e007800808f500004003a004e48900083
:100c98000080fb00000f78000b003700ce48900062
:100ca80000c0eb0080cf5000070032004e48900093
:100cb8008080fb001e0078000088b90000007800e2
:100cc8004800de00000f7800f00f20009e0078003a
:100cd800808f500070003200de009000b0032000ca
:100ce800808f50000c003e001e007800100798000e
:100cf8005e00900000407800c80007008080fb007c
:100d08001e0078000088b900000078004800de0066
:100d180020079800b4003700de009000700720001c
:100d2800808f500011003e005e00900080407800e7
:100d380040ccb30000c04000b80007000080fb00b2
:100d4800f10f200000805000800078001e0078001d
:100d58000088b900000078004800de0010079800fd
:100d68001e007800200798009f003700de009000e2
:100d7800300b2000808f50000e003e001e007800cf
:100d8800200798005e0090008040780080c8b3007b
:100d980000c04000a10007008080fb001e00780012
:100da8000088b900000078004800de00300798008d
:100db8008d003700de009000f00e2000808f50007c
:100dc80010003e005e00900000407800c044b00073
:100dd800920007000080fb00f10f20000080500007
:100de800800078001e0078000088b90000007800b4
:100df8004800de00200798001e00780030079800a1
:100e080079003700de009000b0122000808f50007b
:100e18000d003e005e0090000040780070404000e9
:100e28007e0007008080fb001e0078000088b90063
:100e3800000078004800de00100798001e007800c7
:100e48003007980068003700de0090007016200018
:100e5800808f500064003e001e0078001007980044
:100e68005e00900000407800704040006b00070072
:100e78000080fb00f10f2000008050008000780007
:100e88001e0078000088b900000078004800de00e5
:100e98003007980054003700de009000b0032000af
:100ea800808f500008003e001e0078001007980050
:100eb8005e00900000407800580007000080fb00aa
:100ec8002007980048003700de00900070072000d7
:100ed800808f50000c003e005e009000804078003b
:100ee80040ccb30000c040004c0007000080fb006d
:100ef800f10f200000805000100798001e007800b5
:100f08002007980038003700de009000300b2000e2
:100f1800808f50000a003e001e00780020079800cd
:100f28005e0090008040780080c8b30000c0400098
:100f38003a0007000080fb00300798002a003700bd
:100f4800de009000f00e2000808f50000b003e0065
:100f58005e00900000407800c044b0002f000700f9
:100f68000080fb00f10f200000805000200798004f
:100f78001e007800300798001b003700de00900044
:100f8800b0122000808f500009003e005e009000e3
:100f98000040780070404000200007000080fb00ff
:100fa800100798001e007800300798000e003700e0
:100fb800de00900070162000808f50000a003e006e
:100fc8001e007800100798005e009000004078002e
:100fd80070404000110007000080fb00f10f200066
:100fe80000805000300798003e00900000417800d3
:100ff8002e009000804078001e009000004078008d
:101008008241780001417800804078000e489000c5
:1010180000fe07000080fa00000006000400fa0045
:10102800204798002e4090000080fb00c400dd009f
:101038002e4090000080fb0000804000000f7800e8
:101048001e0078004200de00000f78001e007800c5
:0c105800004078000080fa000000060054
:020000040000fa
:10106400000800004e000000000000000000000026
:00000001FF
